:1000000005308A00C02D00000A108A100A118207EC
:10001000203444344F3400340A108A100A11820705
:1000200020345234453400340A108A100A118207F1
:1000300020344D34493400340A108A100A118207E2
:1000400020344634413400340A108A100A118207E1
:10005000203453344F344C3400340A108A100A11BF
:10006000820720344C34413400340A108A100A11BB
:1000700082072034533449340034B63084000008F9
:1000800003194F280630A100A001A00B4528A10BA1
:1000900044287B30A000A00B4B28800B422808008E
:1000A00083168910831289140A308316B6008312CE
:1000B0003D208316891083128910080083160910C9
:1000C0008312091083168801340883128800502097
:1000D00008003830A60026088316B40083125E207C
:1000E0000130A60026088316B40083125E200C306F
:1000F000A60026088316B40083125E200230A600F4
:1001000026088316B40083125E208A11D12DA8011F
:10011000A70183163408B5003508B60036088400F8
:10012000800803199528B60A8E28350836028312EE
:10013000A100A808031DB728210827020318B72823
:10014000831634088312270784000008A5002508B9
:100150008316B50009108312091483168801350827
:10016000831288005020A70A0319A80A8928FA30A8
:100170008316B60083123D20080003308316B602B2
:10018000031CCB28B630840000080319CB28C928EB
:10019000C928800BC8288312080083163408013A46
:1001A00083120319EC28033A03191229013A03199F
:1001B0003829073A03195E29013A03198429033AB9
:1001C0000319A229013A0319C0290F3A0319DE299C
:1001D000013A0319FA29192A831606108312061404
:1001E00001308316B60083123D2004308316B5001B
:1001F000ED30B6008312BD208316B50BF82806102B
:100200008312061001308316B60083123D2004309D
:100210008316B500ED30B6008312BD208316B50BF2
:100220000A291A2A8316061083120614013083162F
:10023000B60083123D2003308316B500EB30B600C4
:100240008312BD208316B50B1E29061083120610DB
:1002500001308316B60083123D2003308316B500AB
:10026000EB30B6008312BD208316B50B30291A2A55
:10027000831606108312061401308316B60083120B
:100280003D2003308316B500AC30B6008312BD208C
:100290008316B50B4429061083120610013083160D
:1002A000B60083123D2003308316B500AC30B60093
:1002B0008312BD208316B50B56291A2A8316061001
:1002C0008312061401308316B60083123D200230DB
:1002D0008316B500B630B6008312BD208316B50B69
:1002E0006A2906108312061001308316B6008312A5
:1002F0003D2002308316B500B630B6008312BD2013
:100300008316B50B7C291A2A83160610831206144D
:1003100001308316B60083123D20F3308316B600F9
:100320008312BD2083160610831206100130831637
:10033000B60083123D20F3308316B6008312BD2031
:1003400083161A2A831606108312061401308316A8
:10035000B60083123D208B308316B6008312BD2079
:10036000831606108312061001308316B60083121E
:100370003D208B308316B6008312BD2083161A2AC7
:10038000831606108312061401308316B6008312FA
:100390003D2034308316B6008312BD20831606102C
:1003A0008312061001308316B60083123D203430CC
:1003B0008316B6008312BD2083161A2A83160610F0
:1003C000831206140B308316B5005530B600831225
:1003D000BD208316B50BE5290610831206100B30DD
:1003E0008316B5005530B6008312BD208316B50BB9
:1003F000F2291A2A83160610831206140130831676
:10040000B60083123D2040308316B6008312BD2013
:10041000831606108312061001308316B60083126D
:100420003D2040308316B6008312BD2083161A2A61
:100430008312831683120800A8010130A700A808C0
:10044000031D2F2A2708403C031C2F2A0130831646
:10045000B4008312CD20A70A0319A80A1F2A64300A
:100460008316B60083123D20A8010130A700A8081A
:10047000031D472A2708403C031C472A01308316E6
:10048000B4008312CD20A70A0319A80A372A6430C2
:100490008316B60083123D20A8010130A700A808EA
:1004A000031D5F2A2708923C031C5F2A0230831633
:1004B000B4008312CD20A70A0319A80A4F2A64307A
:1004C0008316B60083123D20A8010130A700A808BA
:1004D000031D772A2708403C031C772A0130831626
:1004E000B4008312CD20A70A0319A80A672A643032
:1004F0008316B60083123D20A8010130A700A8088A
:10050000031D8F2A27085B3C031C8F2A04308316A7
:10051000B4008312CD20A70A0319A80A7F2A6430E9
:100520008316B60083123D20A8010130A700A80859
:10053000031DA72A2708F63C031CA72A03308316AD
:10054000B4008312CD20A70A0319A80A972A6430A1
:100550008316B60083123D20831686178312861FEA
:10056000872CA8010130A700A808031DC42A27086A
:10057000403C031CC42A01308316B4008312CD20F2
:10058000A70A0319A80AB42A64308316B600831296
:100590003D20A8010130A700A808031DDC2A270878
:1005A000403C031CDC2A01308316B4008312CD20AA
:1005B000A70A0319A80ACC2A64308316B60083124E
:1005C0003D20A8010130A700A808031DF42A270830
:1005D000923C031CF42A02308316B4008312CD200F
:1005E000A70A0319A80AE42A64308316B600831206
:1005F0003D20A8010130A700A808031D0C2B2708E7
:10060000403C031C0C2B01308316B4008312CD2018
:10061000A70A0319A80AFC2A64308316B6008312BD
:100620003D20A8010130A700A808031D242B27089E
:10063000643C031C242B05308316B4008312CD20A8
:10064000A70A0319A80A142B64308316B600831274
:100650003D20A8010130A7002808013C031C3F2BC6
:10066000031D362B2708113C031C3F2B0430831637
:10067000B4008312CD20A70A0319A80A2C2B6430DA
:100680008316B60083123D20831686178312861FB9
:10069000872CA8010130A700A808031D5C2B2708A0
:1006A000403C031C5C2B01308316B4008312CD2028
:1006B000A70A0319A80A4C2B64308316B6008312CC
:1006C0003D20A8010130A700A808031D742B2708AE
:1006D000403C031C742B01308316B4008312CD20E0
:1006E000A70A0319A80A642B64308316B600831284
:1006F0003D20A8010130A7002808013C031C8F2BD6
:10070000031D862B2708083C031C8F2B08308316FB
:10071000B4008312CD20A70A0319A80A7C2B6430E9
:100720008316B60083123D20A8010130A700A80857
:10073000031DA72B27086E3C031CA72B063083162E
:10074000B4008312CD20A70A0319A80A972B64309E
:100750008316B60083123D20A8010130A700A80827
:10076000031DBF2B27085B3C031CBF2B04308316E3
:10077000B4008312CD20A70A0319A80AAF2B643056
:100780008316B60083123D20A8010130A700A808F7
:10079000031DD72B2708523C031CD72B033083168D
:1007A000B4008312CD20A70A0319A80AC72B64300E
:1007B0008316B60083123D20A8010130A700A808C7
:1007C000031DEF2B2708923C031CEF2B02308316EE
:1007D000B4008312CD20A70A0319A80ADF2B6430C6
:1007E0008316B60083123D20831686178312861F58
:1007F000872CA8010130A700A808031D0C2C27088E
:10080000753C031C0C2C09308316B4008312CD20D8
:10081000A70A0319A80AFC2B64308316B6008312BA
:100820003D20A8010130A700A808031D242C27089B
:10083000753C031C242C09308316B4008312CD2090
:10084000A70A0319A80A142C64308316B600831271
:100850003D20A8010130A700A808031D3C2C270853
:10086000DC3C031C3C2C06308316B4008312CD20E4
:10087000A70A0319A80A2C2C64308316B600831229
:100880003D20A8010130A700A808031D542C27080B
:100890005B3C031C542C04308316B4008312CD201F
:1008A000A70A0319A80A442C64308316B6008312E1
:1008B0003D20A8010130A700A808031D6C2C2708C3
:1008C000643C031C6C2C05308316B4008312CD20CD
:1008D000A70A0319A80A5C2C64308316B600831299
:1008E0003D20A8010130A7002808013C031C872CEB
:1008F000031D7E2C2708113C031C872C0430831613
:10090000B4008312CD20A70A0319A80A742C6430FE
:100910008316B60083123D208A116E2E3D143D08C9
:10092000831687008312071CAD2C8316B401B50112
:10093000293084003408840735088312042080009D
:1009400000380319A82C8316B50AB40A982C831210
:1009500029308316B400831287203D143D08831686
:1009600087008312071CBA2C01308316B40083124F
:10097000CD20AD2CBD143D08831687008312871C43
:10098000D92C8316B401B5012930840034088407BA
:10099000350883120C20800000380319D42C8316EC
:1009A000B50AB40AC42C831229308316B40083120A
:1009B0008720BD143D08831687008312871CE62C10
:1009C00002308316B4008312CD20D92C3D153D088A
:1009D000831687008312071D052D8316B401B50108
:1009E00029308400340884073508831214208000DD
:1009F00000380319002D8316B50AB40AF02C8312AF
:100A000029308316B400831287203D153D088316D4
:100A100087008312071D122D03308316B400831242
:100A2000CD20052DBD153D08831687008312871D37
:100A3000312D8316B401B5012930840034088407B0
:100A4000350883121C208000003803192C2D8316D2
:100A5000B50AB40A1C2D831229308316B400831200
:100A60008720BD153D08831687008312871D3E2D04
:100A700004308316B4008312CD20312D3D163D087D
:100A8000831687008312071E5D2D8316B401B501FE
:100A9000293084003408840735088312242080001C
:100AA00000380319582D8316B50AB40A482D83124D
:100AB00029308316B400831287203D163D08831623
:100AC00087008312071E6A2D05308316B400831237
:100AD000CD205D2DBD163D08831687008312871E2D
:100AE000892D8316B401B5012930840034088407A8
:100AF000350883122D20800000380319842D8316B9
:100B0000B50AB40A742D831229308316B4008312F7
:100B10008720BD163D08831687008312871E962DF9
:100B200006308316B4008312CD20892D8316061754
:100B30008312061FB32D8316B401B501293084003A
:100B400034088407350883123520800000380319E3
:100B5000AE2D8316B50AB40A9E2D83122930831652
:100B6000B40083128720831606178312061FBE2D3A
:100B700007308316B4008312CD20B32D8A11752E51
:100B800003081F398300FF30BD0083161F149F1414
:100B90001F159F118312A401003083168800831251
:100BA00069284830BE006130BF007030C000C1000D
:100BB0007930C2002030C3004230C4006930C50023
:100BC0007230C6007430C7006830C8006430C90095
:100BD0006130CA007930CB002130CC00CD00CE018D
:100BE0004D30D2006130D3006E30D4007530D50066
:100BF0006130D6006C30D700D8014330E600683051
:100C0000E7006F30E800E9007330EA006530EB0080
:100C10002030EC005330ED005730EE003130EF0063
:100C20002D30F0004830F1004230F200F3014F3037
:100C30008316A0007230A1002030A2005330A30020
:100C40005730A4003030A5002D30A6004D30A7004D
:100C50006130A8006E30A9007530AA006130AB0089
:100C60006C30AC00AD0180308312A60026088316DC
:100C7000B40083125E2066308316B400831287208E
:100C8000C030A60026088316B40083125E20A03070
:100C90008316B400831287201430FA00FA308316CA
:100CA000B60083123D20FA0B4E2E8030A600260897
:100CB0008316B40083125E200130A6002608831636
:100CC000B40083125E20831686178312861F6F2E50
:100CD0003E308316B400831287201C2A752E5230B2
:0E0CE0008316B400831287208E2C552E6300DD
:02400E007A3FF7
:00000001FF
;PIC16F874
;CRC=E517  CREATED="15-Apr-25 11:03"
